:020000040000FA
:100000000C9458000C9480000C9480000C94800098
:100010000C9480000C9480000C9480000C94800060
:100020000C9480000C9480000C9480000C94800050
:100030000C9480000C9480000C9480000C94800040
:100040000C945E050C9480000C942C050C94060511
:100050000C9480000C9480000C9480000C94800020
:100060000C94A8050C9480000000000025002800D6
:100070002B00040404040404040402020202020229
:10008000030303030303010204081020408001025C
:1000900004081020010204081020000000080002DB
:1000A0000100000304070000000000000000C70674
:1000B00011241FBECFEFD8E0DEBFCDBF11E0A0E01E
:1000C000B1E0E6E8F1E102C005900D92A036B1077B
:1000D000D9F722E0A0E6B1E001C01D92AA3DB20727
:1000E000E1F710E0C8E5D0E004C02197FE010E94CE
:1000F000BB08C735D107C9F70E940F070C94C10888
:100100000C94000008950895AF92BF92CF92DF92B1
:10011000EF92FF920F931F93CF93DF936C017B01BC
:100120008B01040F151FEB015E01AE18BF08C0174D
:10013000D10759F06991D601ED91FC910190F081C0
:10014000E02DC6010995892B79F7C501DF91CF9183
:100150001F910F91FF90EF90DF90CF90BF90AF90E5
:100160000895FC01538D448D252F30E0842F90E0BD
:10017000821B930B541710F0CF96089501970895A2
:10018000FC01918D828D981761F0A28DAE0FBF2F6B
:10019000B11D5D968C91928D9F5F9F73928F90E0C1
:1001A00008958FEF9FEF0895FC01918D828D981730
:1001B00031F0828DE80FF11D858D90E008958FEF6D
:1001C0009FEF0895FC01918D228D892F90E0805C36
:1001D0009F4F821B91098F739927089585E292E0C2
:1001E0000E94E20021E0892B09F420E0822F08958B
:1001F00080E090E0892B29F00E94EE0081110C94A0
:1002000000000895FC01A48DA80FB92FB11DA35AB9
:10021000BF4F2C91848D90E001968F739927848F26
:10022000A689B7892C93A089B1898C918370806449
:100230008C93938D848D981306C00288F389E02DEA
:1002400080818F7D80830895EF92FF920F931F939B
:10025000CF93DF93EC0181E0888F9B8D8C8D981379
:100260001AC0E889F989808185FF15C09FB7F89485
:10027000EE89FF896083E889F989808183708064D1
:1002800080839FBF81E090E0DF91CF911F910F911C
:10029000FF90EF900895F62E0B8D10E00F5F1F4F2B
:1002A0000F731127E02E8C8D8E110CC00FB607FC3A
:1002B000FACFE889F989808185FFF5CFCE010E94C8
:1002C0000201F1CFEB8DEC0FFD2FF11DE35AFF4F33
:1002D000F0829FB7F8940B8FEA89FB898081806256
:1002E000CFCFCF93DF93EC01888D8823B9F0AA8913
:1002F000BB89E889F9898C9185FD03C0808186FDE1
:100300000DC00FB607FCF7CF8C9185FFF2CF80812F
:1003100085FFEDCFCE010E940201E9CFDF91CF91A1
:10032000089590E0FC01E656FF4F2491FC01EA5746
:10033000FF4F3491FC01EE58FF4FE491EE23C9F0DA
:10034000222339F0233001F1A8F4213019F12230B1
:1003500029F1F0E0EE0FFF1FE859FF4FA591B4918E
:100360008FB7F894EC91611126C030953E233C93F1
:100370008FBF08952730A9F02830C9F0243049F7FD
:10038000809180008F7D03C0809180008F77809363
:100390008000DFCF84B58F7784BDDBCF84B58F7DC0
:1003A000FBCF8091B0008F778093B000D2CF809147
:1003B000B0008F7DF9CF3E2BDACF3FB7F894809114
:1003C000170290911802A0911902B0911A0226B555
:1003D000A89B05C02F3F19F00196A11DB11D3FBF7D
:1003E000BA2FA92F982F8827BC01CD01620F711D4C
:1003F000811D911D42E0660F771F881F991F4A9546
:10040000D1F708958F929F92AF92BF92CF92DF92D1
:10041000EF92FF924B015C010E94DD016B017C01B8
:100420000E94DD016C197D098E099F09683E7340A9
:1004300081059105A8F321E0821A9108A108B1086D
:1004400088EEC80E83E0D81EE11CF11C81149104D3
:10045000A104B10429F7FF90EF90DF90CF90BF90F7
:10046000AF909F908F90089508952091A101260F3D
:100470003327331F21323105ECF42091EA01FC01CE
:1004800090E080E0243069F082E00895A091A1011D
:100490002191AC014F575E4FA40FB52FB11D2C9386
:1004A0000196861798F38091A101680F6093A101CE
:1004B00080E0089581E008951092EA0181E0809340
:1004C000E9011092C40161E082E10E94910161E0C2
:1004D00083E10E949101E9EBF0E080818E7F8083CF
:1004E00080818D7F808388E48093B80085E4809349
:1004F000BC000895CF93DF9391E09093800188230F
:10050000B9F0C091B800D091BA008091BC008A7B4C
:100510008093BC0060E082E10E94910160E083E191
:100520000E9491010E945C02D093BA00C093B8006F
:10053000DF91CF9108950895E091220280912102E8
:10054000E81730F4F0E0E05AFE4F808190E0089523
:100550008FEF9FEF089590912202809121022FEF5B
:100560003FEF981748F4E92FF0E0E05AFE4F208162
:1005700030E09F5F90932202C9010895809121028B
:1005800090912202891B990B0895CF92DF92EF92EE
:10059000FF920F931F93CF93DF937C01CB018A01CE
:1005A0002091F001222389F0EB016B01C40ED51ECE
:1005B000CC15DD0569F06991D701ED91FC910190B1
:1005C000F081E02DC7010995F3CF642F0E94350219
:1005D000C801DF91CF911F910F91FF90EF90DF90B5
:1005E000CF900895CF93DF931F92CDB7DEB7698385
:1005F0002091F0012223F9F020911F02203258F0BF
:1006000021E030E0FC013383228390E080E00F9012
:10061000DF91CF91089580912002E82FF0E0EF5014
:10062000FE4F998190838F5F8093200280931F02F9
:1006300081E090E0ECCF61E0CE0101960E943502AE
:10064000F7CFCF92DF92EF92FF920F931F93CF934A
:10065000DF93FC01C48121E02093F001C0931102DB
:100660001092200210921F028385682B82EC92E088
:100670000E94F202D0911F02D13208F092C00E9473
:10068000DD016B017C018091EA01811165C082E08E
:100690008093EA0181E08093E9018FEF8093E80184
:1006A0001092E701D093E601A1EFB1E0E6ECF1E0B2
:1006B00080E0D81385C01092C5018091C501CC0F90
:1006C000C82BC093C5018091C401813009F07CC062
:1006D0001092C4010E94DD016B017C018091C50173
:1006E0008093BB008091EC019091ED01A091EE010F
:1006F000B091EF01892B8A2B8B2B99F00E94DD01A1
:100700000091EC011091ED012091EE013091EF018B
:100710006C197D098E099F090617170728073907E5
:10072000E0F18091BC0083FDD9CF85EC8093BC00C3
:100730000E94DD016B017C018091EA01823009F4A5
:1007400045C08091E8018F3F61F18091E8018032DE
:1007500041F18091E80125C08091EC019091ED017B
:10076000A091EE01B091EF01892B8A2B8B2B09F41C
:100770008ACF0E94DD010091EC011091ED012091E2
:10078000EE013091EF016C197D098E099F09061762
:1007900017072807390708F076CF8091EB010E94F0
:1007A0007A021092200210921F021092F001DF9143
:1007B000CF911F910F91FF90EF90DF90CF90089510
:1007C0009D9191938F5F75CF85EEB0CF8091EC01B5
:1007D0009091ED01A091EE01B091EF01892B8A2B50
:1007E0008B2B09F4A9CF0E94DD010091EC0110913F
:1007F000ED012091EE013091EF016C197D098E0918
:100800009F09061717072807390708F095CFC5CFA6
:1008100090E080E008950F931F93CF938C01C62F33
:100820000E9421036C2F6460C8010E9421036C2F79
:100830006B7FC8010E94210383EC90E00197F1F7E0
:10084000CF911F910F9108950F931F93CF93DF9333
:100850008C01D62FC42F607F642B0E940B0480E193
:10086000D89FB00111246C2BC801DF91CF911F914B
:100870000F910C940B04CF93DF93CDB7DEB728977D
:100880000FB6F894DEBF0FBECDBF98E0E0E0F1E018
:10089000DE01119601900D929A95E1F79091D602A2
:1008A0002FEF911121E030E0220F331F41E050E0A3
:1008B0004C0F5D1F240F351FF9016081680F6068C0
:1008C00040E08EEC92E028960FB6F894DEBF0FBEA3
:1008D000CDBFDF91CF910C94240441E00E94240409
:1008E00081E090E00895FB0101900020E9F7319745
:1008F000AF01461B570BDC01ED91FC910280F381A7
:10090000E02D09948F929F92AF92BF92EF92FF9247
:100910000F931F93CF93DF93CDB7DEB7A1970FB699
:10092000F894DEBF0FBECDBF7C01FA01CB0119A246
:10093000223008F42AE08E010F5D1F4F822E912C89
:10094000B12CA12CBF01A50194010E949908F901C5
:10095000CA016A300CF5605DD8016E938D01232BBE
:10096000242B252B79F790E080E0109721F0BD0132
:10097000C7010E947304A1960FB6F894DEBF0FBEA4
:10098000CDBFDF91CF911F910F91FF90EF90BF905E
:10099000AF909F908F900895695CDECF85ED809336
:1009A000BC008091EC019091ED01A091EE01B0911D
:1009B000EF010796A11DB11D23E0B695A795979568
:1009C00087952A95D1F72091BC0024FD03C0109291
:1009D000EA0108954091EC015091ED016091EE0122
:1009E0007091EF01452B462B472B69F30097A1052A
:1009F000B10541F02AE22A95F1F700C00197A1095B
:100A0000B109E1CF8091EB010C947A021F920F9211
:100A10000FB60F9211242F933F934F935F936F93D1
:100A20007F938F939F93AF93BF93EF93FF9385E251
:100A300092E00E940201FF91EF91BF91AF919F91CF
:100A40008F917F916F915F914F913F912F910F9077
:100A50000FBE0F901F9018951F920F920FB60F9216
:100A600011242F938F939F93EF93FF93E09135027F
:100A7000F09136028081E0913B02F0913C0282FDD0
:100A80001BC0908180913E028F5F8F7320913F0247
:100A9000821741F0E0913E02F0E0EB5DFD4F958F53
:100AA00080933E02FF91EF919F918F912F910F9034
:100AB0000FBE0F901F9018958081F4CF1F920F9258
:100AC0000FB60F9211242F933F938F939F93AF9361
:100AD000BF938091130290911402A0911502B091DE
:100AE00016023091120223E0230F2D3758F501969C
:100AF000A11DB11D20931202809313029093140242
:100B0000A0931502B09316028091170290911802DB
:100B1000A0911902B0911A020196A11DB11D8093F6
:100B2000170290931802A0931902B0931A02BF9172
:100B3000AF919F918F913F912F910F900FBE0F908A
:100B40001F90189526E8230F0296A11DB11DD2CF44
:100B50001F920F920FB60F9211242F933F934F9332
:100B60005F936F937F938F939F93AF93BF93EF9315
:100B7000FF938091B900887F803609F44AC0F0F570
:100B8000883209F4A7C018F5803109F49BC0B8F485
:100B9000882309F4F9C0883009F494C0FF91EF91DB
:100BA000BF91AF919F918F917F916F915F914F9185
:100BB0003F912F910F900FBE0F901F901895883185
:100BC00009F488C0803251F78093E80114C0803462
:100BD00009F49DC040F48033B9F38833F9F680936B
:100BE000E80185ECB0C0803509F485C0883509F48A
:100BF00096C0883499F60E94CE04D0CF883909F483
:100C00008CC038F5883729F050F4883611F08037D9
:100C100029F683E08093EA011092C30157C0883817
:100C200009F47BC0803919F0803809F0B7CF809182
:100C3000C301803208F071C0E091C30181E08E0FE2
:100C40008093C3018091BB00F0E0ED55FE4F80839F
:100C50003DC0803B39F0E0F4803A09F479C0883A2D
:100C600009F09CCF84E08093EA011092A2011092D7
:100C7000A101E0911D02F0911E0209958091A10150
:100C800081110FC081E08093A1011092810109C000
:100C9000803C09F4A6CF883C09F4A3CF883B09F037
:100CA0007DCFE091A20181E08E0F8093A201F0E060
:100CB000EF57FE4F80818093BB009091A2018091FD
:100CC000A10129C08091C5018093BB0085EC809370
:100CD000BC0064CF9091E7018091E601981758F528
:100CE000E091E70181E08E0F8093E701F0E0EA53A5
:100CF000FE4F8081E9CFE091E70181E08E0F809384
:100D0000E7018091BB00F0E0EA53FE4F80839091B1
:100D1000E7018091E6019817C8F285E8D8CFE09105
:100D2000E70181E08E0F8093E7018091BB00F0E046
:100D3000EA53FE4F80838091E90181115CCF81E00D
:100D40008093C40184EA8093BC001092EA0126CF0C
:100D500085EC8093BC001092EA018091C30180323F
:100D600030F4E091C301F0E0ED55FE4F1082609148
:100D7000C30170E0E0911B02F0911C0283EA91E054
:100D800009951092C3010ACF1092E80134CFE5E231
:100D9000F2E01382128288EE93E0A0E0B0E0848358
:100DA0009583A683B7832CE031E03183208325EC43
:100DB00030E03587248724EC30E03787268720EC25
:100DC00030E0318B208B21EC30E0338B228B22EC16
:100DD00030E0358B248B26EC30E0378B268B118E60
:100DE000128E138E148EE2ECF2E013821282848350
:100DF0009583A683B7838EE191E091838083EEECA7
:100E0000F2E01382128280E391E0918380838FE38A
:100E1000848380E1818782E08287138608957894B5
:100E200084B5826084BD84B5816084BD85B58260EF
:100E300085BD85B5816085BD80916E0081608093A0
:100E40006E00109281008091810082608093810009
:100E50008091810081608093810080918000816019
:100E6000809380008091B10084608093B100809174
:100E7000B00081608093B00080917A00846080939C
:100E80007A0080917A00826080937A0080917A0063
:100E9000816080937A0080917A00806880937A00E4
:100EA0001092C100E0913502F091360282E0808319
:100EB000E0913102F09132021082E0913302F09120
:100EC00034028FEC808310923D02E0913902F09160
:100ED0003A0286E08083E0913702F0913802808107
:100EE00080618083E0913702F091380280818860D0
:100EF0008083E0913702F09138028081806880839E
:100F0000E0913702F091380280818F7D80831092CA
:100F10002202109221021092200210921F020E94BF
:100F20005C0282E890E090931E0280931D0283E8A9
:100F300090E090931C0280931B021092D302809148
:100F4000D802823018F098E09093D3028093D602B2
:100F500062E370E080E090E00E9402026091D902BA
:100F60008EEC92E00E94210368EE73E080E090E056
:100F70000E94020260E38EEC92E00E940B04CBE43C
:100F8000D6E4CE010197F1F760E38EEC92E00E9487
:100F90000B042197F1F760E38EEC92E00E940B04C2
:100FA00083E592E00197F1F760E28EEC92E00E9417
:100FB0000B046091D302606240E08EEC92E00E94EC
:100FC000240484E08093D40240E06CE08EEC92E054
:100FD0000E94240440E061E08EEC92E00E94240430
:100FE000CBE3DFE1CE010197F1F782E08093D502F8
:100FF00040E066E08EEC92E00E94240440E062E073
:101000008EEC92E00E9424042197F1F788E080930F
:10101000D90260E08EEC92E00E94210368E371E067
:101020008EEC92E00E94730480E00E943B0465E431
:1010300071E08EEC92E00E94730410E4C0E0D0E016
:1010400010937C0080917A00806480937A00809174
:101050007A0086FDFCCF8091780090917900909382
:101060002402809323026DE471E085E292E00E9405
:101070007304C0902302D09024020D2C000CEE08C3
:10108000FF082AE0B701A601F7FE0DC06DE285E278
:1010900092E00E94240144275527BA014C195D09AA
:1010A0006E097F092AE085E292E00E9482046AE5E7
:1010B00071E085E292E00E94730487E00E943B04A5
:1010C0006DE571E08EEC92E00E94730487E00E946F
:1010D0003B04C0902302D09024020D2C000CEE089B
:1010E000FF082AE0B701A601F7FE0EC041E06DE25D
:1010F0008EEC92E00E94240444275527BA014C1933
:101100005D096E097F092AE08EEC92E00E9482045C
:101110006CE271E080E090E00E940202209709F406
:101120008FCF0E94EE00882309F48ACF0E9400002E
:1011300087CFA1E21A2EAA1BBB1BFD010DC0AA1F5F
:10114000BB1FEE1FFF1FA217B307E407F50720F030
:10115000A21BB30BE40BF50B661F771F881F991FAB
:101160001A9469F760957095809590959B01AC01F4
:10117000BD01CF010895EE0FFF1F0590F491E02D02
:101180000994F894FFCF00004000140054000000C0
:10119000000024018400B1007101E200C000D4000D
:1011A00000000000F202C50208049B02BE02AB026E
:1011B0009C02000000006D048400080434024F58B3
:1011C0004947454E4F20414755410056616C6F726B
:1011D0003A200056616C6F7220706F74653A20007F
:0611E0000D0A00202000B2
:107E0000112484B714BE81FFF0D085E080938100F7
:107E100082E08093C00088E18093C10086E0809377
:107E2000C20080E18093C4008EE0C9D0259A86E02C
:107E300020E33CEF91E0309385002093840096BBD3
:107E4000B09BFECF1D9AA8958150A9F7CC24DD24C4
:107E500088248394B5E0AB2EA1E19A2EF3E0BF2EE7
:107E6000A2D0813461F49FD0082FAFD0023811F036
:107E7000013811F484E001C083E08DD089C08234E0
:107E800011F484E103C0853419F485E0A6D080C0E4
:107E9000853579F488D0E82EFF2485D0082F10E0AE
:107EA000102F00270E291F29000F111F8ED06801E7
:107EB0006FC0863521F484E090D080E0DECF843638
:107EC00009F040C070D06FD0082F6DD080E0C81688
:107ED00080E7D80618F4F601B7BEE895C0E0D1E017
:107EE00062D089930C17E1F7F0E0CF16F0E7DF06D8
:107EF00018F0F601B7BEE89568D007B600FCFDCFD4
:107F0000A601A0E0B1E02C9130E011968C91119780
:107F100090E0982F8827822B932B1296FA010C0160
:107F200087BEE89511244E5F5F4FF1E0A038BF0790
:107F300051F7F601A7BEE89507B600FCFDCF97BE46
:107F4000E89526C08437B1F42ED02DD0F82E2BD052
:107F50003CD0F601EF2C8F010F5F1F4F84911BD097
:107F6000EA94F801C1F70894C11CD11CFA94CF0C13
:107F7000D11C0EC0853739F428D08EE10CD085E9AC
:107F80000AD08FE07ACF813511F488E018D01DD067
:107F900080E101D065CF982F8091C00085FFFCCF94
:107FA0009093C60008958091C00087FFFCCF809118
:107FB000C00084FD01C0A8958091C6000895E0E648
:107FC000F0E098E1908380830895EDDF803219F02E
:107FD00088E0F5DFFFCF84E1DECF1F93182FE3DFCA
:107FE0001150E9F7F2DF1F91089580E0E8DFEE27F6
:047FF000FF270994CA
:027FFE00040479
:00000001FF
